:100000000C9470030C948D030C948D030C948D034D
:100010000C948D030C948D030C948D030C948D0320
:100020000C948D030C948D030C946B140C94AD13F1
:100030000C941B1E0C948D030C948D030C948D0357
:100040000C948D030C948D030C948D030C948D03F0
:100050000C948D030C9475150C948D030C948D03E6
:100060000C948D030C948D030C948D030C948D03D0
:100070000C948D030C948D030C948D030C948D03C0
:100080000C948D030C948D030C948D030C948D03B0
:100090000C948D030C948D030C948D030C948D03A0
:1000A0000C948D030C948D030C948D038E078E0796
:1000B000C107C1072C084909490949094A08BE086E
:1000C000CF08CF08C511EC119513EC119513381218
:1000D0005B1295135013601388248D2497248B246E
:1000E000902495249324C125C425C725CA25CD2550
:1000F000D025D32505010980A101850319012AB75F
:1001000000150126B700950175108100C0050C0986
:1001100001A101850419012AA002150126A002955A
:100120000175108100C005010906A10185060507BA
:1001300019E029E7150025019508750181020507D9
:10014000190029EF1500250195F0750181020508B8
:100150001901290595057501910295017503910114
:10016000C00660FF0961A1010962150026FF009524
:1001700020750881020963150026FF009520750887
:100180009102C005010906A101050719E029E7153B
:100190000025019508750181029501750881010509
:1001A00007190029FF150026FF0095067508810034
:1001B0000508190129059505750191029501750339
:1001C0009101C009025B00030100A0FA09040000CC
:1001D000010301010009211101000122400007056E
:1001E0008103080001090401000203000000092145
:1001F00011010001222200070582032000010705EA
:10020000030320000109040200010300000009218A
:1002100011010001226D0007058403200001120175
:100220000002000000089732764901000102000137
:1002300020034500720067006F0044006F007800E3
:10024000200045005A00200047006C006F00770036
:10025000000028035A0053004100200054006500AC
:10026000630068006E006F006C006F00670079002B
:1002700020004C00610062007300000004030904C8
:1002800035002B002967E100E00000001E0014008B
:1002900004001D0000074D001F001A0016001B007F
:1002A000C35C2B422000080007000600E3002A611F
:1002B0002100150009001900E2004A002200170081
:1002C0000A00050000005000AE00A9000000AA00CE
:1002D0000000510000573D0400004C050000520092
:1002E00023001C000B00110000004F002400180028
:1002F0000D001000E6004B0025000C000E0036003B
:10030000E7002C71260012000F003700650028421C
:10031000270013003300380000074E002A002E008B
:100320003400E500E40000000100010001000100CC
:100330007300000001000100010001000100010044
:1003400001000100010001000100010001000100A5
:1003500001000100E20001000100010001000100B4
:10036000E3000100010001000100010000000100A4
:100370000100010000000100000001000157010020
:100380000000010000000100010001000100010067
:10039000000001000100010001000100E700010070
:1003A0000100010001000100E60001000100010060
:1003B0000100010001000100010001000100010035
:1003C00001000100010001000100010073000000B4
:1003D0000100010039000100010000003A000100A5
:1003E0004A004D000100C95C3B002F004600490057
:1003F000010001003C0030004B004E0001004C6148
:100400003D002F02350035020100C85C3E0030027D
:10041000010001000000B65DB200A9000000AA00C2
:100420000000B75D01000100000001000000B55DA3
:100430003F000100010001000000C35C40002602F3
:1004400050002D000100B45D4100520051002D020A
:1004500001000100420027024F00AE5D01000100D3
:1004600043000100310231000100C45C440045003A
:10047000AE5D0100010000003500010039000100FF
:10048000E000000001000100010001000100010086
:1004900001000100010001000C0029000100010021
:1004A0000100010010002C0001000100010001000A
:1004B0000100010001000100010001000000010035
:1004C00001002A0000002800000001000050010087
:1004D0000000010000000100010001000100010016
:1004E00000000100010001005000010001000100B6
:1004F0000100520051000100010001000100010053
:100500004F00010001000100010001000100010095
:1005100001000100010001002800010001000000AD
:100520000044345400746484005545650085759515
:100530000036264600665676009686A60037274780
:10054000007767870038284800887898003929495B
:1005500000695979009989A9003A2A4A006A5A7AA9
:10056000003B2B4B006B5B7B004C3C5C007C6C8C41
:10057000005D4D6D008D7D9D003E2E4E006E5E7EB9
:1005800001443454017464840155456501857595B1
:100590000136264601665676019686A6013727471C
:1005A00001776787013828480188789801392949F7
:1005B00001695979019989A9013A2A4A016A5A7A45
:1005C000013B2B4B016B5B7B014C3C5C017C6C8CDD
:1005D000015D4D6D018D7D9D013E2E4E016E5E7E55
:1005E00000010101010101010101020202020202F6
:1005F00002020203030303030303030404040404C9
:10060000040405050505050606060606070707078F
:100610000708080808090909090A0A0A0B0B0B0C44
:100620000C0C0D0D0D0E0E0E0F0F0F1010111111E1
:100630001212131314141515161617171818191962
:100640001A1A1B1B1C1D1D1E1E1F202021222223C7
:100650002424252626272829292A2B2C2D2D2E2F08
:1006600030313232333435363738393A3B3C3D3E1F
:100670003F404142434445464748494A4C4D4E4F0E
:1006800050515354555658595A5B5D5E5F616264D0
:10069000656668696B6C6D6F7072737577787A7B5D
:1006A0007D7E8082838587888A8C8E8F91939596B4
:1006B000989A9C9EA0A2A3A5A7A9ABADAFB1B3B5D4
:1006C000B7BABCBEC0C2C4C6C9CBCDCFD1D4D6D8B0
:1006D000DBDDDFE2E4E7E9EBEEF0F3F5F8FAFDFF4E
:1006E00011241FBECFEFDAE0DEBFCDBF12E0A0E0E5
:1006F000B1E0E2EAF1E602C005900D92A837B10739
:10070000D9F725E0A8E7B2E001C01D92A63EB207E6
:10071000E1F70E9455200C94CF300C940000A5E224
:10072000B0E0E5E9F3E00C942B2EFC01808191818F
:1007300023813481232B31F09F3F31F491E08F3FAF
:1007400019F403C091E001C090E090FDCFC57F0196
:1007500085E0DE01919601900D928A95E1F7D7012F
:1007600012962C9189A19AA1222349F00E94372642
:10077000182F682F89A19AA10E94A72603C00E9462
:100780007326182F69A17AA1812F0E9407168C0168
:10079000F70182818823E1F08091640590916505DD
:1007A0000097B1F08017910799F0FEE08F9FC0018C
:1007B0001124FC01E05EFE4F208124602083855ED1
:1007C0009E4FDC010D931C930E94C31E1092630583
:1007D0008091D805882309F44FC0F70182818111E7
:1007E0003DC3E0917A02E330A0F481E08E0F809364
:1007F0007A02F0E0EE0FFF1FEA55FA4FD7018D9114
:100800009C919183808382E08983CE0101960E942E
:10081000822BBFEFE3EDF0E3B150E040F040E1F7B1
:1008200000C0000080917A02833009F017C3109253
:100830007A02ECEAF5E0A6EAB5E082EB95E03181D8
:1008400011962C911197321330C030812C913213B4
:100850002CC0329612968E179F0789F784E0898301
:1008600081E08093D9058EEF8A831092D805CE015E
:1008700001960E94822BF2C28091D9058823D1F083
:10088000D70112968C91882311F086E001C087E091
:100890008983F70180818A8381818B838EEF8C83AA
:1008A000CE0101960E94822B05C083E089831092BD
:1008B000D905D9CF033BFDE51F07E9F5D70112960E
:1008C0008C91882309F440C090916F0581E0890FD5
:1008D0008770987F853020F4892B80936F0502C044
:1008E00090936F0580916F058770BFEF8B9FC0015C
:1008F00011249595879595958795992790938900CB
:100900008093880090938B0080938A0090938D0051
:1009100080938C0040916F05509170056091710536
:10092000709172058FE090E00E94062F8091810502
:100930000E94722409C0043B2DE5120709F053C13F
:10094000F701828181116EC10E3ABDE51B07E1F40A
:10095000F7018281882309F481C28091620588238E
:1009600019F00E94EE1E7AC210924B030E941D18CD
:100970000E94B61588579C4E9093A4058093A305BA
:1009800081E0809362056AC280916205882309F440
:1009900089C0D0904B03C090F2030E94B6158857CF
:1009A0009C4E9093A4058093A305D70112968C9139
:1009B000882309F47CC08C2D8D298D7909F06DC0B8
:1009C0000115B5E51B07B0F40115E3E51E0708F0B6
:1009D00069C00115F0E51F0740F4011520E4120776
:1009E00090F5063E1105B1F55DC0011582E51807C9
:1009F00088F558C0011599E5190750F40115A8E5C7
:100A00001A0708F04FC00431B5E51B0719F54AC0B5
:100A1000C801905681159042E8F4D70115968C9143
:100A2000807FA9F4812F8F718231B1F028F4823058
:100A3000A1F581EE90E012C08431A1F1863169F513
:100A400086EE92E10BC0F7018581807F59F1C801E4
:100A5000992704C0C80102C085EE90E0109263059A
:100A60008832910530F48E319105D0F40497A8F0C6
:100A70000EC08D32910559F018F48A9789F00DC097
:100A80008C34910569F08D32924051F006C082E0BD
:100A9000809363050E942A1803C00E94EE1E02C0C4
:100AA0000E942A18D70112968C91811168C18091F9
:100AB0004B0382720B3C2CE5120709F483C098F5B6
:100AC000063CACE51A0709F469C0B8F4043CECE54F
:100AD0001E0709F459C008F05CC0033C2CE512075E
:100AE00009F0CFC19091DC0581E089278093DC0576
:100AF00010923C018091DB0543C0083C9CE519073E
:100B000009F456C008F44FC0093CBCE51B0709F4C2
:100B100054C00A3CECE51E0709F0B3C14EEB5DE1A1
:100B20006BEC7DE15DC0003DFCE51F0709F476C07C
:100B300098F40D3C9CE5190709F44EC008F447C031
:100B40000E3CBCE51B0709F467C00F3CECE51E0733
:100B500009F097C185E063C0073DFCE51F0738F445
:100B6000023D2CE5120708F079C182E158C00F352B
:100B70008DE5180709F472C184C19FEF9093E105D8
:100B800081608093DB056AC146E05EE160E17EE161
:100B900027C040E15EE166E07EE122C042EF5DE118
:100BA0006CEF7DE11DC04CEF5DE162EF7DE118C0AF
:100BB00048ED5DE165EE7DE113C045EE5DE168ED78
:100BC0007DE10EC04BEC5DE16EEB7DE109C048EDCF
:100BD0005BE166EE7BE104C046EE5BE168ED7BE144
:100BE0000E941C1F3BC1033C8CE51807D1F1063B5A
:100BF000BDE51B0709F44DC0073BEDE51E0709F4F1
:100C000055C0053BFDE51F0709F060C0D7011296EE
:100C10008C91882309F422C181E001C08DE00E94FB
:100C2000821F1CC180916F0583FB222720F991E070
:100C3000922790FB83F980936F05992329F040E078
:100C400060E080E00E94000A40916F0550917005BD
:100C500060917105709172058FE090E00E94062FFF
:100C600073CED70112968C91882309F4F7C0909126
:100C7000E1058091DB059F3F09F07FCF1092E105F0
:100C800081608093DB0540E060E080E00E94000A24
:100C9000E5C0F7018281882309F4E0C081E00E9469
:100CA000821F4FEF6FEF8AEE90E00DC0D7011296D2
:100CB0008C91882309F4D2C081E00E94821F4FEFFB
:100CC0006FEF8CEB90E00E942F2BC8C0C8019755A6
:100CD0008F3F910511F008F037CE5801BB24BEE0DC
:100CE0000B9FF0011124CF01855E9E4F6C01D7014F
:100CF00012969C911297E05EFE4F808190FB80F9E6
:100D0000808312969C919923A1F10E94B61590932D
:100D1000A2058093A105F60182818F5F8283909165
:100D2000630580914B03892B83838091F203848335
:100D30000680F781E02D309739F0D6011C966D9131
:100D40007C911D97C60109958EE08A9DF0018B9DCF
:100D5000F00D1124E05EFE4F808181FF03C090E022
:100D600080E002C0902F812F9093640580936505E9
:100D7000EBCD81FF09CEC6010E94A51EE5CD0C3545
:100D80009DE5190709F464C060F40115BCE51B0773
:100D9000A9F00F3DECE51E0709F073C00E94A717EC
:100DA0004CC00E35FDE51F0709F44AC008F452C0D7
:100DB000093A8DE5180709F440C063C010924B034F
:100DC0000E945B279FEFA4E3BCE09150A040B0409D
:100DD000E1F700C00000F89481E08093E00080E239
:100DE0008093D8001092C900EFE1FEE43197F1F74B
:100DF00000C000001DBA109268001CBC10BE1FBAD3
:100E000010927A0010926E0010926F001092710092
:100E1000109272001092C9001092BC0014B817B85A
:100E20001AB81DB810BA1092BC0015B818B81BB883
:100E30001EB811BA0C94003F11C00E945A240EC073
:100E40008091460382FB882780F991E0892703C0BF
:100E500081E001C080E00E949C1813C08091D10302
:100E6000877009F443C2D70112968C91882309F444
:100E70003DC28091460382FF39C282E00E947F1802
:100E800035C2F701828100811181882349F0C801B0
:100E90000E943726D82E682FC8010E94A72604C0BA
:100EA000C8010E947326D82EB8018D2D0E94071606
:100EB0000E942016B82E192F982EF7010281A580C6
:100EC000A2949FE0A9228091D1038770B9F00023FA
:100ED000A9F0812F807F803421F080E28B0D883053
:100EE00068F08091460382FF09C082E00E947F186B
:100EF0008091D1038770DD24D3948111D12CC12E30
:100F0000C2948FE0C8228C2D90E08C30910508F0BF
:100F1000C0C1FC01EA5AFF4F0C949B2F812F807FA8
:100F20001F70882311F01295107F0023B9F0112350
:100F300009F49DC180E28B0D883010F0911006C03D
:100F400080914B03182B10934B0305C080916305D0
:100F5000182B109363050E942A1889C18B2D0E94BB
:100F60008027112309F495C180E28B0D883080F130
:100F7000992071F1109580916305182310936305F2
:100F80002AC0812F807F1F70803211F01295107F50
:100F90008B2D992021F0F1E09F16D9F147C0809167
:100FA000460382FD1BC0002369F0112339F08091B4
:100FB0004B03182B10934B030E942A1880E00E94C9
:100FC000AC2767C180E00E948027112309F461C12A
:100FD000812F0E9423180E942A185BC1002381F0F0
:100FE0008091F203AA2051F021E0A21207C0182B31
:100FF000181709F44EC11093F2034BC1812B10C096
:10100000AA2021F081E0A81609F443C10E941D180E
:101010001FC0002341F091E09A1508F43AC1812FD6
:101020000E94762736C1A11034C112C0002319F0E6
:10103000AA20A9F31CC1AA2059F0893309F026C1BE
:10104000AFEFB7EEE3E0A150B040E040E1F71CC1E4
:10105000812F0E946F271DC1812F869586958370F1
:1010600019F0813061F015C1002321F08B2D912FF3
:10107000937002C080E090E00E94821E10C10023A5
:1010800021F08B2D912F937002C080E090E00E94A0
:101090006C1E05C1812F8370A9F50111FEC04B2D77
:1010A000429546954770440F440F8B2D8F7090E00A
:1010B0009C01042E01C0220F0A94EAF7B4FE08C076
:1010C0008FE090E001C0880F4A95EAF7809501C053
:1010D00080E0169516951370123069F088F490919F
:1010E000F303113019F0822B892302C0922B892B34
:1010F0000E941F27D2C0822B9091F3038927F8CF3B
:10110000822BF6CF002319F0812F817001C08695C4
:10111000882309F4C2C04B2D429546954770440F71
:10112000440F8B2D8F7090E09C01042E01C0220F84
:101130000A94EAF7B4FE08C08FE090E001C0880F7F
:101140004A95EAF7809501C080E0169516951370D0
:10115000123059F078F490918105113019F0822BFA
:10116000892309C0922B892B06C0822B909181057F
:10117000892701C0822B0E94DC268FC01F700023AC
:1011800039F0812F0E9413278B2D0E94762785C06E
:101190008B2D0E946F27812F0E9406277EC08B2DEA
:1011A000F2EF9F1669F1F91538F020EF921659F019
:1011B00091EF991601F157C0A3EF9A1641F1B4EFE0
:1011C0009B16A9F050C0002369F0A11062C01F71E6
:1011D00081E090E001C0880F1A95EAF790918105AF
:1011E00089271FC0E1E0EA1508F453C0F0CF8091D1
:1011F000460382FD19C0002329F0812F8F7126C07C
:101200000023D9F3812F8F710E94062742C000234B
:1012100039F01F7181E001C0880F1A95EAF701C00B
:1012200080E00E94DC2635C0002399F01F71812FD9
:101230000E9413278091460382FF07C0F8E01F9F9A
:10124000C001112483608093D103812F0E94132752
:1012500020C081E00E947F1821E02A15D0F482E0AE
:101260000E947F1816C0002321F0AA2031F28B2D96
:10127000A6CEAA2039F2893349F48FEF97EEA3E086
:1012800081509040A040E1F700C000008B2D0E94EB
:10129000802788EF8C0D843010F40E94981EDD208A
:1012A000A9F08091D10380FD11C0F70112828595CC
:1012B000859585950E941327C7010E948F03809111
:1012C000D1038595859585950E94062785E0F701D0
:1012D000DE01119601900D928A95E1F709811A813C
:1012E000C8010E947326B8010E940716A596EBE07C
:1012F0000C94472EE42FF0E0EE0FFF1FE851FE4F55
:101300009081921B97FD9195292F38E1239F212DE4
:101310001124620F08950F931F9310E0F801EE0F50
:10132000FF1FE851FE4F9081905797FD9195000F58
:10133000111FF801E751FE4FE081F0E0B097DF01A7
:10134000AA0FBB1F8D010E0F1F1F2003D001219F6D
:10135000B00D1124E8E3F0E0E91BF10997FDF395E6
:101360009F01220F331F89010E0F1F1F40039001A1
:10137000419F300D11242A0F3B1F37FF02C0215817
:101380003F4F220F232F221F330B620F1F910F910C
:1013900008952091E00530E1230F08F42FEF60E17C
:1013A000822F90E00E949B2ABC0188EB9BE00E9468
:1013B000102E80E090E008950F931F93CF93DF935A
:1013C000D62F072F182FC42F822F0E940B2AEC2F05
:1013D000F0E0EE0FFF1FE851FE4F90819058890F0B
:1013E00087FD8195880F682F2CE0629F612D112465
:1013F0006D0F702F812FDF91CF911F910F91089565
:101400000E94321C08950E94F41B0895A4E0B0E0ED
:10141000ECE0FAE00C94252E782E80910C018711D7
:101420000DC02091DC05237030E040910B0150E0AD
:1014300081E02417350719F480E001C081E0817054
:1014400080933B018091E10590913A01981739F022
:1014500080933A0140E060E080E00E94000AEFE003
:101460007E125DC08BEB98E20E94AE2B8A8342C055
:10147000F71508F49AC123E0721609F459C027152C
:1014800008F4F7C031E0731609F497C0371508F077
:10149000B6C080913901382F330F330F380F39839D
:1014A00075E0F72EF30E80E38F1510F460E3F62E4F
:1014B0001091DE059091DF059A830091DD05B8015A
:1014C000892F0E94A52AE62ED72EC82E6091E0050E
:1014D000600F712F8A810E94A52A6A83172F082F17
:1014E00029812F1508F4ABC031E03A838FE28F15C4
:1014F00008F48EC0809139018F5F809339019A8101
:10150000911113C582E080933C0180913B018111D0
:101510000CC571100AC583E080933C0106C5E71530
:1015200008F46BC1F7E07F12A3CF8AEE98E29CCF5C
:1015300080913901982F990F990F980F99839B5F8C
:101540009B83913310F0E0E3EB83E090DE05D090D5
:10155000DF052091E00550E4F52E3F2D329F312D1F
:101560001124F32EE981FB81EF1708F042C0898135
:10157000082F10E0F801E85BFD4F908180913A015F
:101580008923B9F0F801EE0FFF1FE751FE4F80816C
:1015900082958F706091DD058F9D600D11247E2DE9
:1015A0008D2D0E94A52A462F282F672FC8010E9443
:1015B000030A99819F5F9983D5CF80913901282FA4
:1015C000220F220F280F29832B5F2B83213310F04A
:1015D00030E33B836091DD057091DE058091DF058E
:1015E0000E94A52A162F072FF82EE981FB81EF17FD
:1015F00088F021E02A83F03308F47CCF09C0809181
:101600003B01882329F040E060E080E00E94000A6E
:101610001A8270CF8981E82FF0E0DF01A85BBD4F0F
:101620008C9190913A01982331F02F2D412F602F0A
:10163000CF010E94030A99819F5F9983D6CFE981E8
:101640008E2F90E0FC01E85BFD4F308120913A0144
:10165000232359F030FF04C0202F4A81612F03C09B
:101660002C2D4E2D6D2D0E94030AF981FF5FF98309
:1016700037CF85E078124AC080913901382F330F77
:10168000330F380F39833B5F3B83313310F080E3F6
:101690008B830091DD051091DE05F090DF056091F0
:1016A000E0056695669566958091D4059091D5057F
:1016B0000E949B2A0E940B2A805887FD8195880FE3
:1016C000282F3F2D239F212D1124822FB8010E9406
:1016D000A52A162F072FF82EE981FB81EF1708F0B6
:1016E00088CF8981E82FF0E0DF01A85BBD4F8C91A6
:1016F00090913A01982331F02F2D412F602FCF0187
:101700000E94030A99819F5F9983E6CF871508F4A9
:1017100049C080913901382F330F330F380F398387
:101720003B5F3B83313310F080E38B83E090DE0539
:10173000D090DF052091E00530E4F32E3F2D329F5D
:10174000312D1124F32EE981FB81EF1708F051CFE1
:101750008981082F10E0F801E85BFD4F90818091AE
:101760003A018923D9F0F801EE0FFF1FE851FE4F2F
:101770006081F69EB001112425E0759567952A9544
:10178000E1F78091DD05680F7E2D8D2D0E94A52A41
:10179000462F282F672FC8010E94030A99819F5F57
:1017A0009983D1CF86E199E25FCE9BE0791208C0A0
:1017B00089E999E202C085EB99E20E944D2C56CE50
:1017C000971568F0E9E07E1205C080ED99E20E946D
:1017D000C92C4CCEE71578F38EEE99E2F8CFFDE0F8
:1017E0007F1203C08FED98E23FCEF71518F088EE18
:1017F00098E23ACE86ED98E237CE27E172124FC0DA
:1018000080913901382F330F330F380F3983132F5D
:101810001B5F113308F010E380913B0181111EC062
:101820006091E00520E1620F08F46FEF8091D4052C
:101830009091D5050E949B2A6AE070E00E94102ECC
:10184000892B21F50E942C2A60E30E947B2F609156
:101850003A01892F90E00E94471F18C09981892F73
:1018600090E09C838B83E12EF12C2B813C812E1503
:101870003F0564F460913A018B819C810E94471F6F
:10188000EB81FC813196FC83EB83EFCF31E03A832F
:1018900002C091E09A83103308F42CCEB9CE2715FC
:1018A00030F133E1731203C084E799E286CF371534
:1018B00070F081E1781203C082E79AE288CF871541
:1018C00018F08CEA98E279CF88E899E280CF95E128
:1018D000791203C08CE498E204C0971528F08EE7D3
:1018E00098E20E94F82BC2CD8BE899E0FACFEBE1A9
:1018F0007E1203C08AE799E0B7CDE71508F4A1C0CE
:10190000F9E17F1250C080913901E82FEE0FEE0F00
:10191000E80FE983EB5FEB83E13310F0F0E3FB8347
:101920000091DE051091DF05F090DD056091E00586
:101930006695669566958091D4059091D5050E942F
:101940009B2A0E940B2A805887FD8195880F682F5B
:101950002CE0629F612D11246F0D702F812F0E944A
:10196000A52A162F072FF82E89819B818917A8F4A5
:101970002981E22FF0E0DF01A85BBD4F8C919091AF
:101980003A01982331F02F2D412F602FCF010E9473
:10199000030A39813F5F3983E7CFE1E0EA8390337F
:1019A00008F4A8CD35CEF71508F448C080913B0166
:1019B00081111EC06091E00520E1620F08F46FEF15
:1019C0008091D4059091D5050E949B2A65E070E036
:1019D0000E94102E892B09F01BCE0E94A72E60E3D7
:1019E00070E00E94872F60913A010E94231F10CE61
:1019F00080913901982F990F990F980F9983192F7A
:101A00001B5F113308F010E3F981EF2FF0E0FC8346
:101A1000EB83E12EF12C8B819C818E159F050CF0C0
:101A200038CF60913A018B819C810E94231F2B81CA
:101A30003C812F5F3F4F3C832B83EDCF8CED99E0B2
:101A400013CD2DE17212F0C040910F03509110039D
:101A500060911103709112038091D4059091D50586
:101A6000A091D605B091D70584179507A607B707AB
:101A700008F4CECD80913B0181110EC080913901D7
:101A8000982F990F990F980F9983092F0B5F0133A6
:101A900008F45CC000E35AC040E060E080E00E94CF
:101AA000000A0FE712E01C821B828FE7D82E0E94EB
:101AB0002C2A81FF05C0F80110821182128220C0F9
:101AC0000E942C2AC82E0E942C2A8695782F2D2D14
:101AD000720F08F47FEF8B819C81880F991FEB8137
:101AE000FC818E0F9F1F9C0121583D4F79016C2D69
:101AF0008091DF050E94A52AF701608371838283AC
:101B00002B813C812F5F3F4F3C832B830D5F1F4F09
:101B10002033310561F6B2CF3981832F90E0FC018B
:101B2000E85BFD4F308120913A01232361F0FC01F5
:101B3000EE0FFF1FE80FF91FE158FD4F2281408192
:101B400061810E94030A89818F5F8983998190173F
:101B500018F3E1E0EA83003308F01A82003308F456
:101B6000C9CC20E010E001501109822F90E08017CD
:101B70009107CCF4AC01440F551F480F591F415831
:101B80005D4F0196FC01EE0FFF1F8E0F9F1FFC01A2
:101B9000E158FD4F80819181A281FA018083918378
:101BA000A2832F5FE2CF0E942C2A7801EE0CFF1C4B
:101BB00081FF09C00E0D1F1DF801E158FD4F108275
:101BC0001182128218C00E942C2A89830E942C2A1A
:101BD0008695782F2FE7720F08F47FEF0E0D1F1DEB
:101BE00001581D4F69818091DF050E94A52AF801E7
:101BF0006083718382830E94C9090091D40510918A
:101C0000D5052091D6053091D705DC01CB01800F99
:101C1000911FA21FB31F80930F0390931003A093F3
:101C20001103B093120366CC721608F07AC080914B
:101C30003901982F990F990F890F8B5F8B834091F2
:101C4000D4055091D5056091D6057091D705809146
:101C50007B0290917C02A0917D02B0917E0284175C
:101C60009507A607B70708F055C00E942C2A89835C
:101C70000E942C2A90E3891BF0F7890F082F10E0AF
:101C8000F801E85BFD4F80913A019081982309F4B7
:101C900041C0F981F1FF04C020E040E060E013C0E2
:101CA0000E942C2A89830E942C2A8695782F2FE760
:101CB000720F08F47FEF69818091DF050E94A52AE9
:101CC000462F282F672FC8010E94030A2091E005A4
:101CD00030E1230F08F42FEF60E1822F90E00E94A3
:101CE0009B2ABC0184EF91E00E94102E8091D405C4
:101CF0009091D505A091D605B091D705860F971F75
:101D0000A11DB11D80937B0290937C02A0937D0264
:101D1000B0937E0221E02A833B81303308F4EACB82
:101D200077CC3EE17312C7C080913B01882329F034
:101D300040E060E080E00E94000A80913901982F25
:101D4000990F990F890F8B5F89834091D40550912A
:101D5000D5056091D6057091D70580913D0390918E
:101D60003E03A0913F03B091400384179507A60757
:101D7000B70708F099C06091DD057091DE0580918C
:101D8000DF050E94A52A662E572E482E03E113E098
:101D900024E931E03C832B8348EE842E41E0942EED
:101DA000AB80BC806501780132E0332EF701808181
:101DB000F601882369F08081242D462D652D90E061
:101DC0000E94030AF5018581242D462D652D0CC046
:101DD000808120E040E060E090E00E94030AF5018D
:101DE000858120E040E060E090E00E94030AF70176
:101DF000818181937F013A94FFEFCF1ADF0A21E0BE
:101E0000A21AB1083110D2CFF8018281EB81FC8196
:101E1000882371F08281242D462D652D90E00E944B
:101E2000030AEB81FC818381242D462D652D0DC095
:101E3000828120E040E060E090E00E94030AEB81B4
:101E4000FC81838120E040E060E090E00E94030A92
:101E50000E942C2A837091E009F090E0F8019283AF
:101E60000D5F1F4F2B813C812A5F3F4F3C832B83AB
:101E70008216930609F094CF0E94C9090091D405F7
:101E80001091D5052091D6053091D705DC01CB0105
:101E9000800F911FA21FB31F80933D0390933E03B9
:101EA000A0933F03B093400331E03A8389818033AC
:101EB00008F420CBADCB8FEF781231C08091D405E0
:101EC0009091D505A091D605B091D70588279C7033
:101ED000AA27BB272AE0B695A795979587952A95B7
:101EE000D1F782309105A105B10571F083309105DC
:101EF000A105B10569F040E00197A105B10511F018
:101F000060E008C064E102C044E160E080E003C03A
:101F100044E164E184E10E94000A82E0FDCA80910C
:101F200039018F5F80933901EDCA2496E1E10C9469
:101F3000412EECEDF5E085E3808380913D019091A9
:101F40003E01A0913F0181839283A3838CE384832C
:101F50008FEF858346E050E06CE170E0CF010E9496
:101F6000E42E1092DB0508958091710387FF11C064
:101F70008091E80082FD05C08091DA058111F8CFDB
:101F800011C08091E8008B770BC08091DA0588231F
:101F900049F08091E80080FFF8CF8091E8008E77CB
:101FA0008093E8000895982F973068F59093E900A2
:101FB000981739F07091EC002091ED005091F000ED
:101FC00003C0242F762F50E021FD02C09F5FECCF8D
:101FD0003091EB003E7F3093EB003091ED003D7F80
:101FE0003093ED003091EB0031603093EB00709353
:101FF000EC002093ED005093F0002091EE0027FDBF
:10200000E5CF80E008958F708093E90081E0089526
:1020100020917703309178032617370748F0611530
:10202000710539F42091E8002E772093E80001C073
:10203000B901FC0120E06115710579F18091DA05A3
:102040008823F1F18530F1F18091E80083FD3CC0F7
:102050008091E80082FD2EC08091E80080FFEBCFE8
:102060002091F3008091F20090E0922B61157105B0
:1020700051F08830910538F421912093F10061509E
:1020800071090196F3CF21E0089709F020E08091D3
:10209000E8008E778093E800CECF2111CFCF0AC021
:1020A0008091DA05882361F0853061F08091E80045
:1020B00083FD0AC08091E80082FFF2CF80E008959E
:1020C00082E0089583E0089581E0089508950895D9
:1020D00080914D0308958093470370934903609363
:1020E00048038091DA058430F9F48093E9008FEF9A
:1020F0009091E800815095FD06C095ED9A95F1F715
:1021000000008111F5CF8091E80085FF0DC040E00F
:1021100050E063E070E087E493E00E94582B8091E8
:10212000E8008E778093E8000895BC0184E00E9467
:102130006B100895BC0183E00E946B100895CF934B
:10214000DF9320910A01222339F02091450327FFD4
:1021500003C060E224E002C068E021E02093E900CF
:102160002FEF3091E800215035FD06C035ED3A954E
:10217000F1F700002111F5CF2091E80025FF1DC0E7
:10218000EC0180910A01811105C040E050E068E057
:1021900070E003C070E040E050E0CE010E94582B98
:1021A0008091E8008E778093E80080E2FE01AEE443
:1021B000B3E001900D928A95E1F7DF91CF910895F8
:1021C000AAE2B0E0E6EEF0E10C94332EE1E7F3E0B2
:1021D00089E793E02091F10021938E179F07D1F7B3
:1021E00080917203833009F463C030F4813071F060
:1021F000823009F49FC0B6C08A3009F48BC08B309E
:1022000009F46EC0893009F0ADC020C0809171031F
:10221000813A09F0A7C08091E800877F8093E800A9
:102220008091750390917603892B21F460E28EE40E
:1022300093E003C060E080E090E070E00E9408104E
:102240008091E8008B778093E8008CC080917103C7
:10225000813209F087C080917503909176030097D1
:1022600019F0029709F07EC08091E800877F809383
:10227000E8008091E80082FD05C08091DA058111B7
:10228000F8CF70C02091F3008091F20090E0922B83
:10229000029731F48091F100813011F0863021F401
:1022A0008091F10080934D038091E8008B7756C0B8
:1022B00080917103813A09F055C080917503909126
:1022C0007603892B09F04EC08091E800877F8093C8
:1022D000E8008091E80080FFFCCF80910A0139C0BE
:1022E000809171038132F1F58091750390917603AD
:1022F000892BC1F58091E800877F8093E8000E94D8
:10230000B40F8091730380930A0110924B030E94D3
:102310005B2728C080917103813221F58091E8000C
:10232000877F8093E8000E94B40F809174038093AC
:102330004C0318C080917103813AA1F48091E800A8
:10234000877F8093E8008091E80080FFFCCF809138
:102350004C038093F1008091E8008E778093E80031
:102360000E94B40F8091E80083FFDFC18091710368
:1023700090917203492F50E04A30510508F0D5C1C1
:10238000FA01EE59FF4F0C949B2F803821F08238D0
:1023900009F0CBC108C080916E0390916F0399231F
:1023A00089F082600FC0809175038F70873008F0CC
:1023B000BCC18093E9008091EB0085FB882780F900
:1023C0001092E9009091E800977F9093E800809345
:1023D000F1001092F10070C1282F2D7F09F0A5C1E6
:1023E000882319F0823061F0A0C18091730381309D
:1023F00009F09BC1933009F080E080936F032EC0F9
:102400008091730381112AC0809175038F702FEF23
:10241000280F263008F089C18093E9002091EB0055
:1024200020FF1CC0933021F48091EB00806214C027
:102430009091EB0090619093EB0021E030E0A901D6
:1024400002C0440F551F8A95E2F74093EA001092AC
:10245000EA008091EB0088608093EB001092E90025
:102460008091E800877F8093E8000E94B40F5DC1EF
:1024700081115BC1109173031F778091E300807815
:10248000812B8093E3008091E800877F8093E800B0
:102490000E94B40F8091E80080FFFCCF8091E300A0
:1024A00080688093E300111102C082E001C083E0E4
:1024B0008093DA053AC18058823008F036C1209105
:1024C0007303309174032C3D53E0350779F583E0B5
:1024D0008A838AE289834FB7F894DE01139620E05D
:1024E0003EE051E2E32FF0E050935700E49120FFEB
:1024F00003C0E295EF703F5FEF708E2F90E0EA30FF
:1025000010F0C79601C0C0968D939D932F5F243124
:1025100049F74FBF8091E800877F8093E8006AE227
:1025200070E0CE0101960E940810B4C0809175033E
:1025300090917603432F552743305105A9F068F455
:102540004130510509F400C14230510509F0EDC098
:102550008BE590E0E3ECF1E04BC04132510529F10D
:102560004232510589F1E1C0C901992781309105B5
:10257000A1F058F0029709F0D8C0E0E3F2E0E4914E
:102580008E2F90E0E0E3F2E030C0ECE7F2E0E4917F
:102590008E2F90E0ECE7F2E028C0E2E5F2E0E49173
:1025A0008E2F90E0E2E5F2E020C08330910508F044
:1025B000BCC0880F991FFC01E75BFE4F0190F081C2
:1025C000E02D89E090E014C08330910508F0ADC0A3
:1025D000FC01EE0FFF1FED5BFE4F0190F081E02D3F
:1025E000DC01A05CBE4F8C9190E0009709F49DC087
:1025F0002091E800277F2093E80020917703309115
:1026000078032817390708F4C90140E0009789F1D9
:102610002091DA05222309F43DC02530D9F120911B
:10262000E80023FD37C02091E80022FD2FC0209153
:10263000E80020FFEBCF4091F3002091F20030E062
:10264000342B009759F02830310540F444914093E1
:10265000F100319601972F5F3F4FF3CF41E02830D3
:10266000310509F040E02091E8002E772093E80042
:10267000CDCF4111CDCF0AC08091DA05882351F02A
:10268000853041F08091E80083FD04C08091E8002E
:1026900082FFF2CF8091E8008B778093E80045C0FD
:1026A000803809F042C08091E800877F8093E8007D
:1026B000809170038093F1008091E8008E77D3CEF3
:1026C000811133C08091730390917403992702970D
:1026D00064F58091E800877F8093E8001091730390
:1026E000109370030E94B40F111106C08091E30093
:1026F00087FD02C081E001C084E08093DA0542E0FA
:1027000061EC81E00E94D30F42E261EC84E00E9420
:10271000D30F42E261EC82E00E94D30F42E260EC10
:1027200083E00E94D30F8091DA058091E80083FF57
:1027300010C08091E800877F8093E8008091EB00D3
:1027400080628093EB0005C082E190E0EEE1F2E070
:102750004FCFAA96E3E00C944F2E1F920F920FB624
:102760000F9211242F933F934F935F936F937F9317
:102770008F939F93AF93BF93CF93DF93EF93FF9389
:10278000C091E900CF708091EC00D82FD17080FD0E
:10279000D0E81092E9008091F000877F8093F000EC
:1027A00078940E94E0101092E9008091F000886017
:1027B0008093F000CD2BCF70C093E900FF91EF9193
:1027C000DF91CF91BF91AF919F918F917F916F9149
:1027D0005F914F913F912F910F900FBE0F901F90DF
:1027E0001895E8EDF0E080818E7F80831092E20002
:1027F0001092DA001092E100A0EEB0E08C918160BE
:102800008C9380818F77808319BCA7EDB0E08C9189
:102810008E7F8C9380818F7E808310924A030895EF
:10282000A0E0B0E0E6E1F4E10C942E2EC8EDD0E09B
:1028300088818F7E8883E7EDF0E0808181608083EE
:1028400084E082BF81E080934A0388818E7F888301
:1028500002EE10E0F80110821092DA0081EEC82E2C
:10286000D12CF601108288818F77888388818068D7
:10287000888388818F7D888319BC1092DA05109235
:10288000700310926F0310926E0390EEE92EF12CFC
:10289000F70180818B7F808388818160888342E01B
:1028A00060E080E00E94D30FF60180818E7F8083FC
:1028B000F801808181608083808188608083F70156
:1028C00080818E7F8083888180618883CDB7DEB7E9
:1028D000E8E00C944A2E1F920F920FB60F9211242B
:1028E0002F933F934F935F936F937F938F939F9318
:1028F000AF93BF93EF93FF938091E10082FF09C0F4
:102900008091E20082FF05C08091E1008B7F80937F
:10291000E1008091DA0080FF2AC08091D80080FF1A
:1029200026C08091DA008E7F8093DA008091D900F2
:1029300080FF18C080E189BD82E189BD09B400FE35
:10294000FDCF81E08093DA0580914A0381110FC0A9
:102950000E94F1130E9410148091E2008460809321
:10296000E20005C019BC1092DA0510924A0380916A
:10297000E10080FF17C08091E20080FF13C08091CA
:10298000E2008E7F8093E2008091E200806180937C
:10299000E2008091D80080628093D80019BC85E065
:1029A0008093DA058091E10084FF30C08091E200DD
:1029B00084FF2CC080E189BD82E189BD09B400FE9D
:1029C000FDCF8091D8008F7D8093D8008091E10069
:1029D0008F7E8093E1008091E2008F7E8093E20001
:1029E0008091E20081608093E200809170038823EF
:1029F00011F084E007C08091E30087FD02C081E010
:102A000001C083E08093DA058091DA058091E100CE
:102A100083FF27C08091E20083FF23C08091E10003
:102A2000877F8093E10082E08093DA051092700343
:102A30008091E1008E7F8093E1008091E2008E7FA3
:102A40008093E2008091E20080618093E20042E0A6
:102A500060E080E00E94D30F8091F0008860809356
:102A6000F000FF91EF91BF91AF919F918F917F9176
:102A70006F915F914F913F912F910F900FBE0F90EB
:102A80001F9018952091E4003091E50095E6409163
:102A9000EC00842F817040FF23C08091E80080FD0E
:102AA0001DC08091DA05882399F0853099F08091D6
:102AB000EB0085FD11C04091E4005091E500241722
:102AC000350729F3915011F09A01E1CF84E0089580
:102AD00082E0089583E0089581E0089580E00895FC
:102AE0004091E80042FFDDCF089578941F920F9245
:102AF0000FB60F9211248F939F93AF93BF93809142
:102B0000410390914203A0914303B0914403019685
:102B1000A11DB11D8093410390934203A0934303F1
:102B2000B0934403BF91AF919F918F910F900FBECF
:102B30000F901F9018959C014FB7F8948091410316
:102B400090914203A0914303B09144034FBF821B75
:102B5000930B08952FB7F89460914103709142034D
:102B600080914303909144032FBF08952FB7F894A9
:102B70008091410390914203A0914303B09144039B
:102B80002FBF089580E008959091450392FF0DC0F6
:102B9000282F2871283019F4877F846006C0282FD9
:102BA0002471243011F48B7F886093FF0DC0282F8F
:102BB0002871283119F4877E846106C0282F24717A
:102BC000243111F48B7E88612091460320FF0DC0D3
:102BD000382F3871383019F4877F816006C0382F5C
:102BE0003171313011F48E7F886021FF0DC0282FA4
:102BF0002871283119F4877E816106C0282F217140
:102C0000213111F48E7E886194FD877E08957E3097
:102C1000A0F4663090F494E5899FF001112486E0D9
:102C2000789FE00DF11D1124E60FF11DEE0FFF1F3F
:102C3000E058FD4F85919491089580E090E00895CB
:102C4000CF93DF938238910569F1B0F48133910518
:102C500009F477C048F48932910509F469C08A32D1
:102C6000910509F473C092C08533910509F45BC0E6
:102C700089339105B9F08AC0833E910591F138F40A
:102C8000803E9105D1F0823E910531F17FC0863EB4
:102C90009105D9F1873E9105E9F1843E910509F04E
:102CA00075C028C02091450320FD5BC021FD59C09F
:102CB0002091460323FD61C069C08091450380FDDA
:102CC0004AC08091460380FF4CC08091450384FD3B
:102CD00039C183EE90E038C18091450382FF3EC048
:102CE000F4CF8091450382FD39C08091460380FD79
:102CF00038C0EBCF8091460381FF39C080914503F6
:102D000084FD20C187EE90E01FC18091450383FFC1
:102D10002BC0F4CF8091450383FD26C080914603EC
:102D200081FD25C0EBCF8091450385FD26C022C0E3
:102D30008091450385FD1EC08091460383FF1DC021
:102D40000AC08091450386FD1BC01DC080914503CC
:102D500086FD19C015C089E390E0F6C082EE90E0D0
:102D6000F3C080EE90E0F0C086EE90E0EDC084EE1F
:102D700090E0EAC085E390E0E7C089E290E0E4C03B
:102D80008AE290E0E1C081E390E0DEC0811532E5A7
:102D9000930708F05FC0811541E5940728F0982F4C
:102DA0008827816F906AD0C0883E910568F5803E83
:102DB000910508F0C9C0883A9105B8F4853A9105A3
:102DC00048F0855AE82FF0E0E15BFE4F808190E00B
:102DD0009064BAC08130910509F4B1C008F4B2C062
:102DE0008430910508F4AEC0AFC08F3B910508F068
:102DF000A9C0885AE82FF0E0EE0FFF1FEE5AFE4FF1
:102E0000808191819464A0C0811520E59207A0F093
:102E1000AC014370552721E030E002C0220F331F80
:102E20004A95E2F78695869540E2849FC001112479
:102E3000822B932B9D6888C0811530E4930718F08E
:102E40009F70906A81C09C013A9521153F4108F41A
:102E50007BC078C0EC01C11586E5D807E8F5C1153F
:102E600025E5D20748F08C2F0E94C4158F7190E0A1
:102E7000982F8827906268C0C11534E5D30728F0E1
:102E80009C2F8827846F906A5FC0AE0143705527DE
:102E90002C2F26952695C115D34578F481E090E036
:102EA00002C0880F991F4A95E2F740E2249F9001E3
:102EB0001124822B932B9C6847C081E090E002C0D4
:102EC000880F991F4A95E2F740E2249F9001112450
:102ED000822B932B9A6838C0C1152AE5D207F8F4E3
:102EE000C11539E5D30790F08C2F8F700E94C4155F
:102EF00094E0D695C7959A95E1F7CF70D0E0DC2F96
:102F0000CC27D0699E01282BC9011EC0C11548E5F8
:102F1000D407C0F09C2F8827806F906A15C0CE011F
:102F200090568115904270F48D2F8F710E94C415B8
:102F3000282F2F71CE0199279062922B05C081E036
:102F400090E002C080E090E0DF91CF91089568EEBC
:102F50007EEF80E090E00E94122F60E082E090E03F
:102F60000E94F42E60E083E090E00E94F42E109224
:102F7000F30360E084E090E00E94F42E64E082E2DB
:102F800090E00E94F42E60E085E090E00E94F42E34
:102F900060E086E090E00E94F42E6FEF87E090E022
:102FA0000E94F42E40E050E0BA0188E090E00E94D8
:102FB000062F60E08DE090E00E94F42E40E050E0AB
:102FC000BA0188E190E00E94062F60E087E190E07E
:102FD0000E94F42E40E050E0BA018CE190E00E94A3
:102FE000062F60E070E080E290E00E94122F40E047
:102FF00050E0BA0188E190E00E94062F10926F0520
:1030000010927005109271051092720584E0809301
:103010006F0540916F055091700560917105709139
:1030200072058FE090E00E94062F40E050E0BA0168
:1030300083E190E00E94062F08958091F2038111B0
:103040001092F2030895809590914B038923809309
:103050004B03089590914B0380916305982B9093B7
:1030600079038091F2038823D9F0892B8093790327
:1030700080910A01882331F08091450387FF02C0C7
:103080008EE101C086E0EBE7F3E090E0815028F0AC
:1030900021912223D9F39F5FF9CF91110E941D182E
:1030A00040E250E062ED73E089E793E00E94C230B5
:1030B000892B21F180E2E9E7F3E0A2EDB3E0019092
:1030C0000D928A95E1F7E0916805F09169053097D6
:1030D000A9F080910A01882359F08091450387FF68
:1030E00007C08091790380937A0386E08093790307
:1030F0000280F381E02D89E793E0099508952091FE
:10310000D103809582238093D103982F977099F4EF
:1031100030E0482F082E000C550B2417350759F0C6
:103120009091460392FF07C08595859585950E94ED
:1031300006271092D1030895CF93C0914603C2FB96
:10314000992790F9981791F080FBC2F9C093460334
:103150006091450384E090E00E94F42E6C2F82E29F
:1031600090E00E94F42E82E00E947F18CF91089593
:103170008091D00390919F03891719F08F5F87701A
:10318000FBCF08950F931F93CF93DF9380919E03FE
:1031900082958F7009F05AC080919B03882309F4AF
:1031A00055C08091D00310919F0360919903709155
:1031B0009A03C0919C03D0919D0391E06F3F09F069
:1031C00090E0292F06E0811709F440C0209721F0F4
:1031D0007F3F21F030E003C031E001C0322F90E0AA
:1031E00030FD31C0089FF001099FF00D1124DF016F
:1031F000A056BC4F11963C911197371324C03C91B7
:10320000361321C012963C91129731111CC01396AF
:103210004D915C9114974C1B5D0B483C510598F403
:1032200080919E038F70806180939E03EB55FC4FCD
:1032300080818F708061808389E993E00E948F0391
:103240000E94B81803C001968770BDCFDF91CF915F
:103250001F910F910895A1E1B0E0E1E3F9E10C9431
:103260002B2E8C0185E0F801DE011D9601900D9258
:103270008A95E1F7F801E2809091990360919A03B1
:1032800040919C0350919D034115510531F06F3FD2
:1032900031F481E09F3F19F403C081E001C080E078
:1032A000F82FF1709F2E80FD1BC1F8013081218124
:1032B000C380D48089E9A82E83E0B82EF0909B03C8
:1032C000F601E41BF50BFF2009F4C7C080919E03B3
:1032D000E83CF10508F092C0482F407F09F051C04A
:1032E000621311C093130FC0FE2CE1100CC08F703D
:1032F000806180939E03C5010E948F0380919E038D
:10330000F80185832AC1C114D10431F02F3F31F473
:1033100081E03F3F19F403C081E001C080E080FDFF
:1033200003C081E08E2502C080E090E0F82FF170AC
:10333000FF2E80FF1CC08091D00340919F0356E078
:10334000841709F4E8C090E0589FF001599FF00DF0
:103350001124E056FC4F6181261306C0608163137F
:1033600003C06281E61203C001968770E9CFFE2C8C
:10337000EE2009F4F2C080919E03816080939E0349
:1033800049C0621306C0931304C0E11002C0F801E3
:1033900086C0C8010E942427882351F1EE2041F104
:1033A00020919E03822F82958F7090E0029774F097
:1033B0008091990390919A0398878F831986DB8671
:1033C000CA862C87CE0107960E948F0386E0F801FB
:1033D000A9E9B3E001900D928A95E1F70E94C21825
:1033E0000AC06217C9F0C8010E94242781111EC0BB
:1033F000C8010E948F03FF24F394AFC0482F407F81
:1034000081F789E993E00E948F0386E0F50111922C
:103410008A95E9F7F12CA1C09313E5CFE110E3CF32
:10342000F8018583C8010E948F0354C0EE2001F388
:1034300020919E03822F82958F7090E0029734F244
:103440008091990390919A039A8389831B82DD82EC
:10345000CC822E83CE010196B7CFE83CF105D0F5A2
:10346000FE2CEE2029F2621327C0931325C0209171
:103470009E0320FD18C0822F82958F70482F50E048
:103480004115510581F0F80125834F30510541F078
:103490008F5F982F9295907F822F8F70892B8583D5
:1034A000C8010E948F0386E0F801A9E9B3E001900A
:1034B0000D928A95E1F751C0C8010E94242781111D
:1034C00085CF80919E03816080939E03C8010E94F6
:1034D0008F0343C086E0F50111928A95E9F73DC05C
:1034E000EE2009F485CFC8010E942427F82E8823F6
:1034F00009F47ECF86E0F801A9E9B3E001900D92CE
:103500008A95E1F78091990390919A030E9466262B
:103510000E94C21822C03D872E878D859E850E94FD
:103520006626292F22952F70223028F49F7039F0BB
:10353000811105C00BC0243028F49F7049F4805ECF
:10354000883020F0C8010E948F039F2CF92C05C001
:10355000F8019581907F99F7F9CF8F2D6196EBE077
:103560000C94472EA0E0B0E0E8EBFAE10C942E2E8C
:103570008091190190911A01892BA1F08091F40397
:103580008F5F8093F40381110DC00E949C2490E012
:1035900090931A0180931901892B21F40E9413251D
:1035A0000E94851F03E715E07801D0E0C0E087E0C6
:1035B000C82ECC0E8C2F0E9483258C2D0E94832533
:1035C0008C2F0E94E6258F73F7019081891721F0D7
:1035D0008083DD24D39401C0D12C8C2D0E94E6255C
:1035E0008F73F7019781891719F0878381E001C0F4
:1035F00080E0D82ADD290E94D725CF5FFFEFEF1AA0
:10360000FF0AC730A1F61092F903C091F803CC234A
:1036100009F4C4C00E94B6152091F6033091F70357
:10362000AC01421B530B9A019093F7038093F6036E
:103630004F3F510509F018F4452B19F102C02FEF47
:1036400030E01092F8031092F503E0916D05F091CF
:103650006E05AF01425F5F4F90E030E080818823CC
:1036600041F0281718F010829C2F03C0821B808322
:103670003C2F3196E417F50789F73093F8039093C0
:10368000F503DD2309F47BC0E0916D05F0916E0533
:103690008091F9039091F803A4E8B5E0AF01425F8F
:1036A0005F4F6EE1E80128813C91321779F030815B
:1036B00031110CC060832C9398819227282F30E021
:1036C000292B81E0232B09F480E091E031961196BB
:1036D0000F5F1F4FE417F50729F78093F9039093C5
:1036E000F803C091F9032091D8058091FB039091D4
:1036F000FC032223C9F1892B31F425982D982698B3
:103700002E9827982F988091FB039091FC0391703D
:10371000892B79F48091FA03882319F026982E9842
:1037200002C0269A2E9A9091FA0381E0892780930D
:10373000FA038091FB039091FC038130984750F08D
:103740001092D805809181050E9472241092FC038A
:103750001092FB038091FB039091FC0301969093E0
:10376000FC038093FB031EC0892BE1F01092FC0345
:103770001092FB03809181050E94722413C081E0A6
:103780009091F503992309F4ACCF81117DCF0E946C
:10379000B6159093F7038093F60376CFD111F7CF48
:1037A00080E0EECF8C2FCDB7DEB7E8E00C944A2E48
:1037B000ECEDF5E0248130E1231B08F420E02483C4
:1037C0008091DB0581608093DB050895ECEDF5E0E9
:1037D000248130E1230F08F42FEF24838091DB054F
:1037E00081608093DB050895A4E0B0E0EAEFFBE19F
:1037F0000C94312E8033910588F5122F042FF62E6C
:10380000BC01660F771F660F771F605E7A4F44E03A
:1038100050E0CE0101960E94B72E898183704A81C3
:10382000282F30E050E9859FC0011124845E9B4F12
:10383000FC01E40FF11DB497F0824B81FC01E40F11
:10384000F11DB49700834C81840F911DFC01B49746
:103850001083F901E65EFB4F81E080832496E5E06A
:103860000C944D2EFF920F931F93CF93DF93182F3D
:10387000062FF42EC0E0D0E02F2D402F612FCE0177
:103880000E94F41B2196C033D105B1F7CDB7DEB746
:10389000E5E00C944D2E0F931F93CF93DF93082FE9
:1038A000000FEB0114E210930604E7E0F4E0DE0100
:1038B0008D91819384E0E731F807D1F723E030E080
:1038C00041E150E066E074E0802F0E94EB2D105F34
:1038D0006096143B41F7DF91CF911F910F910895AE
:1038E00080911A04882329F06CE174E084E70E9437
:1038F0004B1C10921A0480911B04882329F06CEA57
:1039000074E087E70E944B1C10921B040895E6E0C8
:10391000F4E06083418323E030E042E050E0BF0107
:10392000880F0E94EB2D0895A0E0B0E0EAE9FCE1E9
:103930000C942F2E262F30E0A901405A5A4F7A01BD
:10394000FA019081911107C0F7011082CDB7DEB75F
:10395000E7E00C944B2ED82EF2E16F9FE00111248A
:1039600000E010E0F801EC0FFD1FE45CFA4F40812D
:10397000602F8D2D0E94871C0F5F1F4F0231110594
:1039800089F7E2CFCF93DF93C82F4BE06DEF0E9412
:10399000871C40E06AE08C2F0E94871C8FE39CE923
:1039A0000197F1F700C0000040E060E08C2F0E941A
:1039B000871C40E061E08C2F0E94871C40E066E09D
:1039C0008C2F0E94871C40E06DEF8C2F0E94871C7B
:1039D000D0E040E06D2F8C2F0E94871CDF5FD2313A
:1039E000C1F740E06D2F8C2F0E94871CDF5FD4321F
:1039F000C1F740E06D2F8C2F0E94871CDF5FD43B06
:103A0000C1F74BE06DEF8C2F0E94871C41E06AE00C
:103A10008C2F0E94871C40E06DEF8C2F0E94871C2A
:103A2000DF91CF910895A4E0B0E0E9E1FDE10C94CD
:103A3000282E0E941F2D84E70E94C21C87E70E9447
:103A4000C21C00E215E072E1772EE8E0CE2ED12C08
:103A5000EE24E394F12C6624639444E050E0B80132
:103A6000CE0101960E94B72E2A8130E0C9018497C9
:103A7000AB80B12C44E2A41AB108EC81F0E0B49719
:103A8000AC0197FF02C0495F5F4F63E055954795D2
:103A90006A95E1F72981237030E0729EB001739E30
:103AA000700D1124645C7A4F4B01840E911CB60199
:103AB0000E94872FD70102C0AA0FBB1F8A95E2F789
:103AC000CD01D4019C91892B8C93C501B7FC07963D
:103AD00053E0959587955A95E1F7729EA001739EE4
:103AE000500D1124445C5A4F4A01880E911CC501A7
:103AF000B6010E94872FA70102C0440F551F8A9567
:103B0000E2F7CA01D4019C91892B8C93CF01F7FD78
:103B1000079643E0959587954A95E1F7729EA00137
:103B2000739E500D1124445C5A4F5A01A80EB11CCB
:103B3000CF01B6010E94872FF70102C0EE0FFF1FD1
:103B40008A95E2F7CF01D5019C91892B8C93F901DD
:103B5000E05AFA4F60820C5F1F4FB5E0003E1B0732
:103B600009F07BCF60E084E70E94941C61E087E766
:103B70000E94941C2496EEE00C94442EECEDF5E0AB
:103B8000438120E1421B08F440E08181628190E0A2
:103B90000E942F2B0895ECEDF5E0438120E1420FC8
:103BA00008F44FEF8181628190E00E942F2B0895ED
:103BB000ECEDF5E0628120E1621B08F460E08181B8
:103BC000438190E00E942F2B0895ECEDF5E0628197
:103BD00020E1620F08F46FEF8181438190E00E9441
:103BE0002F2B0895ECEDF5E0818190E04381628117
:103BF00008970E942F2B0895ECEDF5E0818190E06D
:103C00004381628108960E942F2B08958091DC05E4
:103C100086958695815009F48EE10E943F2B089588
:103C20008091DC05869586958F5F8F3108F081E065
:103C30000E943F2B08951F920F920FB60F921124EE
:103C40008F939F93AF93BF9380916C05811113C0A5
:103C50008091410390914203A0914303B0914403AA
:103C60004196A11DB11D8093410390934203A093FF
:103C70004303B0934403BF91AF919F918F910F90F5
:103C80000FBE0F901F90189520910A012223C9F0B2
:103C90002091450327FF15C0262F269526952695AA
:103CA0002E31C8F4FC01E20FF11D677081E090E055
:103CB00001C0880F6A95EAF78095928189238283F3
:103CC0000895FC0106962281621301C0128231968A
:103CD000E817F907C1F7089520916A0530916B053F
:103CE0002817390771F090936B0580936A05E0916E
:103CF0006805F0916905309721F00084F185E02D89
:103D000009950895209166053091670528173907B0
:103D100071F09093670580936605E0916805F091D6
:103D20006905309721F00680F781E02D0995089507
:103D3000E0916805F0916905309729F00190F081D4
:103D4000E02D0995089580E00895CF93DF93EC016D
:103D5000EA85FB85309719F06C857D8509958B8107
:103D60008095909163058923809363058C810E94DF
:103D700023180E942A1886E0FE0111928A95E9F71D
:103D8000DF91CF910895CF93DF93EC018D8181FD79
:103D900018C082608D83909163058B81892B8093FD
:103DA000630590914B038C81892B80934B030E9478
:103DB0002A18E885F985309721F06C857D85CE013C
:103DC000099510926505109264058D8180FD03C0F0
:103DD000CE010E94A51EDF91CF91089580916205CA
:103DE000882349F0809163058D7D809363050E944F
:103DF0002A18109262050895CF93DF930E94A72E90
:103E000066E070E00E94872FD82F0E94A72E6EE0F8
:103E100070E00E94872FC82F6D2F782F80E00E94BE
:103E200007160497C59718F48D2F9C2F02C00E9487
:103E3000FC1EDF91CF910895882311F0FA0101C093
:103E4000FB01099508951F93CF93DF93FC01E85B75
:103E5000FD4F20816223B9F0EC010E94A72E182F9C
:103E60000E94A72E8F77782F20E8720F08F47FEF3B
:103E7000612F8091DF050E94A52A462F282F672FEA
:103E8000CE010E94030ADF91CF911F910895A0E017
:103E9000B0E0EDE4FFE10C942F2EEC01FC01E85BB7
:103EA000FD4F9081692349F1D090DE050091DF0537
:103EB0001091DD05E12EF12C0E942C2A282FC7013C
:103EC0008C549F4F68E671E00E94872F8E199F09DE
:103ED00097FD039695958795959587952370612F06
:103EE000289F600D11247D2D802F0E94A52A462F2A
:103EF000282F672FCE010E94030ACDB7DEB7E7E077
:103F00000C944B2E0E943F2B08950E94131D80E0BD
:103F100090E00E94DE2E883E9E4F21F00E94A7175F
:103F20000E94990F46E050E06CE170E08CED95E066
:103F30000E94C02E1092DB058091DC058C7F11F46D
:103F40000E94990F08958F929F92AF92BF92CF9245
:103F5000DF92EF92FF92C090FD03D090FE03E090BD
:103F6000FF03F09000048FB7F89480904103909085
:103F70004203A0904303B09044038FBF0E94AA1550
:103F8000AB01BC014093FD035093FE036093FF031C
:103F9000709300048091010490910204A0910304A5
:103FA000B0910404880D991DAA1DBB1D8C199D0993
:103FB000AE09BF098093010490930204A093030407
:103FC000B093040420910504211109C021E0813A35
:103FD0009B4BAD40B10508F420E0822F01C081E089
:103FE00080FD08C08091DC05982F937019F08695AC
:103FF000869501C080E090913C01913091F028F0CD
:10400000923091F09330E9F047C01092390140931B
:10401000D4055093D5056093D6057093D70581E0FC
:104020000DC00E94060A38C080930C018091DC0507
:10403000837080930B010E94701C83E080933C018D
:104040002BC08091DB05882351F046E050E06CE105
:1040500070E08CED95E00E94E42E1092DB0540911B
:10406000D4055091D5056091D6057091D7052FB72D
:10407000F8948091410390914203A0914303B09141
:1040800044032FBF841B950BA60BB70B4A97A105C2
:10409000B10510F010923C01FF90EF90DF90CF90AF
:1040A000BF90AF909F908F900895ACE5B0E0EBE5A6
:1040B000F0E20C94272E85B7806885BF85B78068AD
:1040C00085BF84B7877F84BF0FB6F894A895809189
:1040D0006000886180936000109260000FBE90E0E5
:1040E00080E80FB6F89480936100909361000FBE52
:1040F00082EC95E190937902809378020E94F1130B
:104100000E9410148091E20084608093E200789411
:104110008091DA058823A1F01091E9001F70909139
:10412000EC00892F817090FD80E8182B1092E90037
:104130008091E80083FD0E94E0101F701093E90059
:1041400082E084BD93E095BD9AEF97BD80936E00A9
:104150000E949C2490E090931A01809319010E9480
:10416000D7250E941D26E3E7F5E0A4E8B5E011920B
:104170001D9225E0E138F207D1F78EE090E00E9431
:10418000A12F80936D0590936E05FC010E96119200
:10419000E817F907E1F789EA8093800089E08093C6
:1041A000810024982C983F988AB18F7C8AB96E98A8
:1041B000479A8BB180638BB9769A8FE090E00E942A
:1041C000D82E60936F05709370058093710590935E
:1041D000720567708FEF689FB00111247595679520
:1041E0007595679577277093890060938800709321
:1041F0008B0060938A0070938D0060938C000E9406
:10420000132580E090E00E94DE2E883E9E4F11F044
:104210000E94A71782E090E00E94D02E8093920522
:1042200084E090E00E94D02E182F82E290E00E945D
:10423000D02E212F30E0382B3093460320934503B6
:1042400083E090E00E94D02E0E941F27809181057C
:104250000E9472240E94851F8091DC05837011F4F6
:1042600010923C018091DC058C7F81608093DC059D
:104270008DE091E0909369058093680538E1E32E25
:10428000F12C42E9C42E45E0D42E8091DA05853028
:1042900009F070C000E4BB24B39423E0A22E10E127
:1042A0008091DA05853009F05DC08091DA058430AF
:1042B00009F436C00E94A31F8091050481110DC02E
:1042C0000E94060A10920C018091DC058370809395
:1042D0000B010E94701CA0923C01B0920504109248
:1042E0006C050FB6F894A895E09260000FBE00939D
:1042F000600083B7817F846083BF83B7816083BFA1
:104300007894889583B78E7F83BF0FB6F894A8956D
:1043100080916000886180936000109260000FBE01
:1043200080916F03882309F4BBCF0E949C2490E006
:1043300090931A01809319010E94D7250E941D268F
:10434000E4E8F5E0119225E0E239F207D9F70E949E
:10435000B21AE4E8F5E081918111A8C1CE16DF061A
:10436000D1F79ECF10924B030E945B270E94981EAC
:10437000109205040E94B21A93E9A92E95E0B92E75
:1043800021EA35E0A4E8B5E0F50191918D91892706
:104390002E173F0719F08823C1F332C0811130C0B6
:1043A0000E94B6158C0180918205909183050817B3
:1043B000190709F472C08FEF64968FAF6497659602
:1043C0008FAF659766961FAE66970E94B61581609F
:1043D000782F68969FAF8EAF689764964FAD6497BD
:1043E00065965FAD659766966FAD669768968FAD7B
:1043F00068970E94A72310938305009382054DC000
:1044000084E8882E85E0982E10E0F40151904F0149
:10441000F50160806524C1F100E077247394862D56
:10442000872161F169960FAF69976A961FAF6A9706
:1044300091E0852D872109F490E06B969FAF6B97F3
:104440000E94B6158160782F6D969FAF8EAF6D97E5
:1044500069964FAD69976A965FAD6A976B966FAD37
:104460006B976D968FAD6D970E94A72310920104F4
:104470001092020410920304109204040F5F770C50
:10448000063069F6F50150821F5FFFEFAF1ABF0AD1
:104490001E3009F0BACF0E94AA1580916405909150
:1044A0006505892BC9F08091A1059091A2050E9414
:1044B0009B15893C910580F0809164052EE0829FD8
:1044C000C0011124FC01E05EFE4F208122FD04C0EA
:1044D000855E9E4F0E94C31E80916205882369F00D
:1044E0000E94B6152091A3053091A405821B930B61
:1044F0008F3F9F4710F40E94EE1E0E94A31F0E9450
:10450000981E9091A505891721F08093A5050E941A
:10451000AA158091DA05843009F0B7CE83E0809344
:10452000E9008091E80082FFB0CE8091E80085FF2D
:1045300022C00E94421581111CC000E210E05E0101
:10454000F1E2AF0EB11C08C08091F100F50181933A
:104550005F010150110969F08091E80085FDF4CFF9
:104560008091E8008B778093E8000E9442158823B1
:1045700099F391E001C090E08091E8008B778093FF
:10458000E800992309F481CE89A18130E9F158F13D
:10459000823021F0843009F47DC077CE8BA19AA1BE
:1045A0009093A6058093A7058DA19CA19093A80543
:1045B0008093A9058FA19EA19093AA058093AB0536
:1045C00042E150E063E270E0CE018F5B9F4F0E94BA
:1045D000C02E84E0898381E08093D9058EEF8A83A1
:1045E0001092D8050CC019828CE0E0E8F1E0DE0101
:1045F000129601900D928A95E1F78EEF8D87CE018C
:1046000001960E94822B41CE0CEA15E00E94FC1E0E
:10461000F801819391938F01F5E0023B1F07B1F7F9
:1046200081E089839091AC059A839091AD059B833D
:104630009091AE059C839091AF059D839091B005BC
:104640009E839091B1059F839EEF98878093D805B4
:10465000CE0101960E94822B42E150E063E270E0BD
:10466000CE0101960E94C02EFE01319682E1833078
:104670001CF09189928B01C0128A815031978F3F33
:10468000B1F742E150E063E270E0CE0101960E9492
:10469000E42EFBCD8091D905882309F4F6CD80E086
:1046A0000E94DC268AA10E941327EFCD19BD82E16A
:1046B00089BD09B400FEFDCF8091D8008F7D809325
:1046C000D8008091E00082608093E0008091E0005B
:1046D00081FDFCCF10924B030E945B27E1CDFC01D2
:1046E0008281813039F4958192FD12C090FF10C013
:1046F00082E00895823039F4858182FD06C080FD14
:1047000006C083E0089586E0089585E0089584E07A
:1047100008958FE39CE90197F1F700C00000089528
:104720008FE39CE90197F1F700C0000008950E9413
:104730006F23833019F481E00E94DC2608950E94E3
:104740006F23833019F482E00E94DC260895A7E1EC
:10475000B0E0EDEAF3E20C94332E4B8B5C8B6D8B67
:104760007E8B8F8B61111092630586E09E01235F23
:104770003F4FD901E82F1D92EA95E9F795E0FE0138
:104780007396D90101900D929A95E1F79C894E8913
:104790005F897B897D879E876F87598B488BF9015D
:1047A000DE01179601900D928A95E1F7CE010796EA
:1047B0000E942B1981113EC086E0FE013796DE0172
:1047C000119601900D928A95E1F7FF81E8856A853F
:1047D0007B856115710531F0EF3F31F481E0FF3FDA
:1047E00019F403C081E001C080E080FD23C0209166
:1047F0009F0330E0C9010196877099274091D0034B
:1048000050E08417950779F1F983EA837D836C83FF
:1048100096E0929FD001939FB00D1124A056BC4FFB
:10482000FE01319601900D929A95E1F780939F03D6
:104830000E94B81816E08091D00390919F038917C9
:1048400009F1189FC001112480569C4F0E942B191A
:104850008823C1F08091D00390E00196877099275A
:104860008093D003E8CF10924B030E945B271092F5
:104870009F031092D003E9E9F3E086E0DF011D9287
:104880008A95E9F76796E3E00C944F2E982F92955E
:104890009F7019F0892F24E001C020E0982F969591
:1048A000969511F02E5F892F982F969509F02F5F1E
:1048B000822F089510924B030E945B272FEF84E311
:1048C0009CE0215080409040E1F700C000009AE059
:1048D00088E10FB6F894A895809360000FBE90937E
:1048E0006000FFCFCF93C82F0E94462456985E9851
:1048F00025982D9826982E9827982F9890E0FC01BF
:104900003197E730F105A8F4E459FF4F0C949B2F41
:10491000259A2D9A0EC0259A2D9A269A2E9A09C06C
:10492000259A2D9A04C0259A2D9A269A2E9A279A6E
:104930002F9A8C2FCF91089580E290E090931A01E6
:10494000809319018091B20581110EC00E941F2D24
:1049500081E08093B2052FEF83ED90E321508040FA
:104960009040E1F700C0000060E570E080E40E9444
:10497000252D90931A0180931901892B09F04EC0BF
:1049800060E570E080E00E94982D90931A0180937A
:104990001901892B09F042C060E570E080E00E94B7
:1049A000982D90931A0180931901892BB9F560E530
:1049B00070E08FE30E94982D90931A018093190163
:1049C000892B61F50E940C2E60E570E080E40E9466
:1049D000252D90931A0180931901892BF9F460E534
:1049E00070E08CE00E94982D90931A018093190139
:1049F000892BA1F460E570E080E00E94982D9093EF
:104A00001A0180931901892B49F460E570E08FE366
:104A10000E94982D90931A01809319010E940C2EE8
:104A2000809119010895CF93DF9356985E98259849
:104A30002D9826982E9827982F98C8E8D0E08FEFC9
:104A400090E099838883AAE8B0E011969C938E93B6
:104A5000ECE8F0E091838083259A2D9A2FEF80E790
:104A600092E0215080409040E1F700C00000269A7B
:104A70002E9A2FEF80E792E0215080409040E1F79E
:104A800000C00000279A2F9A2FEF80E792E0215074
:104A900080409040E1F700C0000025982D982FEF4E
:104AA00080E792E0215080409040E1F700C0000094
:104AB00026982E982FEF80E792E02150804090407A
:104AC000E1F700C0000027982F9880916F0587704C
:104AD0002FEF829FC0011124959587959595879515
:104AE00099279983888311969C938E9391838083D1
:104AF00056985E9825982D9826982E9827982F9846
:104B0000DF91CF910895CF93E82F873080F5809182
:104B1000190190911A01892B09F047C0CE2F60E549
:104B200070E080E40E94252D90931A018093190172
:104B3000892BD1F460E570E082E10E94982D90937A
:104B40001A0180931901892B79F481E090E001C06A
:104B5000880FCA95EAF760E570E080950E94982D6D
:104B600090931A01809319010E940C2E1EC090E0B0
:104B7000FC013797E730F105C0F4ED58FF4F0C9476
:104B80009B2F209A289811C0219A29980EC0229A0A
:104B90002A980BC0239A2B9808C0529A5A9805C09D
:104BA000539A5B9802C03E9A4698CF9108952098F8
:104BB00028982198299822982A9823982B985298D7
:104BC0005A9853985B983E9846980895CF938730AB
:104BD00040F58091190190911A01892B59F560E5F2
:104BE00070E081E40E94252D90931A0180931901B1
:104BF000892B11F0C0E011C080E590E00E94C72D24
:104C000097FF05C090931A0180931901F3CFC82F25
:104C1000C09510921A01109219010E940C2E8C2F2F
:104C20000AC09FB18FB1807F869586959370892B3E
:104C3000809501C080E0CF9108958098889A8198EE
:104C4000899A84988C9A85988D9A86988E9A879856
:104C50008F9A089580E090E00E94821E80E090E0AC
:104C60000E946C1E109263050E942A180895CF922C
:104C7000DF92FF920F931F93CF93DF936C0100910C
:104C800081058091F303082BC7E0D0E010E0C80154
:104C90000C2E02C0959587950A94E2F780FD04C01A
:104CA0002197A8F7F12C09C0FC2EB6018C2F0E9489
:104CB00007160E942016019799F38F2DDF91CF914F
:104CC0001F910F91FF90DF90CF900895CF93DF93C6
:104CD000EC010E943726BE010E9407160E94201692
:104CE000DF91CF910895292F9E3078F5863068F5B1
:104CF00090E036E0239F800D911D1124682F67708E
:104D000023E0969587952A95E1F7FC01EE0FFF1FAA
:104D1000E80FF91FED54FA4F40E050E080E0219198
:104D200030E0062E02C0369527950A94E2F72170EE
:104D30003327042E01C0220F0A94EAF7822B4F5F1B
:104D40005F4F4330510559F7089580E00895292FAA
:104D50009E3088F5863078F590E036E0239F800D10
:104D6000911D1124282F277051E001C0550F2A955D
:104D7000EAF723E0969587952A95E1F7FC01EE0F77
:104D8000FF1FE80FF91FED54FA4F20E030E070E00C
:104D90004081CB01022E02C0969587950A94E2F7D6
:104DA0008170819584278523842781932F5F3F4FCE
:104DB0002330310569F70895A0E2B0E0E2EEF6E2B3
:104DC0000C94332E0E947224182F8091D9058823C9
:104DD000A9F02FEF80E792E0215080409040E1F76A
:104DE00000C0000085E08983812F0E9446248A83C9
:104DF0008EEF8B83CE0101960E94822B109381054A
:104E00000E942A26A096E3E00C944F2E21E030E089
:104E100001C0220F8A95EAF72095809181058223AF
:104E20000E94DC26089521E030E001C0220F8A951F
:104E3000EAF780918105822B0E94DC2608958093F9
:104E4000F3030E942A260895CF93FC01808191816B
:104E500023813481232B31F09F3F31F491E08F3F48
:104E600019F403C091E001C090E0C92FC17090FD1A
:104E70001CC0808191810E94662692959F70963019
:104E800079F010F4925001C09A50923088F4803F2B
:104E900071F018F4883E60F40AC0843F49F407C0FA
:104EA000883E28F0813F21F402C0C0E001C0C1E08B
:104EB0008C2FCF91089580910A01882331F0809141
:104EC000450387FF02C08EE101C086E0EBE7F3E017
:104ED000DF011D928A95E9F70E942A26089588230A
:104EE00021F00E9423180E942A180895882339F07F
:104EF00090914B03892B80934B030E942A180895AD
:104F0000882349F1682F8CEF860F813A28F489E7CE
:104F100093E00E94441E0CC080E2860F883058F453
:104F2000677081E001C0880F6A95EAF70E94231834
:104F30000E942A1808958BE5860F833028F480E0BC
:104F400090E00E94821E0895685A673120F480E044
:104F500090E00E946C1E0895CF93882309F49AC0B4
:104F6000C82F8CEF8C0F813A08F05EC080910A0147
:104F70008823E1F08091450387FF18C0EC2FE69568
:104F8000E695E695F0E0E758FC4F8281282F30E067
:104F90004C2F477081E090E002C0880F991F4A951E
:104FA000E2F782239323892B59F411C0EBE7F3E056
:104FB0008191C81729F083E0E138F807C9F707C0E5
:104FC0006C2F89E793E00E94441E0E942A1880916A
:104FD0000A018823C9F08091450387FF15C0AC2FD3
:104FE000A695A695A695B0E0A758BC4FC77081E0DE
:104FF00090E001C0880FCA95EAF712969C9112972B
:10500000892B12968C9320C0ABE7B3E0EFEF80E0E2
:105010009D91C917C9F0EF3F19F4911101C0E82F14
:105020008F5F8630A9F72DC080E28C0F883078F42E
:10503000C77081E090E001C0880FCA95EAF79091AF
:105040004B03892B80934B030E942A1823C0EBE566
:10505000EC0FE33040F4F0E0E15BFE4F808190E044
:105060000E94821E17C0C85AC731A0F4EC2FF0E08E
:10507000EE0FFF1FEE5AFE4F808191810E946C1E41
:1050800009C0EF3F09F30E2E000CFF0BE758FC4F51
:10509000C283DACFCF9108950F931F93522F10E060
:1050A000F801EE0FFF1FE751FE4FE081F0E0B097EF
:1050B000EE0FFF1F9F015203D001539FB00D11242B
:1050C000000F111FF801E851FE4F008110E000575A
:1050D0001109000F111F40039001419F300D112451
:1050E0002A0F3B1F37FF02C021583F4F220F232FAB
:1050F000221F330B620F1F910F9108950F931F937F
:10510000522F10E0F801EE0FFF1FE751FE4FE08134
:10511000F0E0B0979F015203D001539FB00D1124CE
:10512000000F111FF801E851FE4F008110E00057F9
:10513000110940039001419F300D11242A0F3B1F9C
:1051400037FF02C021583F4F220F232F221F330B5E
:10515000620F1F910F910895EF920F931F9393E0A9
:10516000099F80011124159507956E2D600F1F91E1
:105170000F91EF900895A22F50E0FA01EE0FFF1F5C
:10518000E751FE4F9081905297FD9195440F551F26
:10519000FA01E851FE4F3081232F30E02A1B3109FC
:1051A000290F311D97FD3A95620F0895E42FF0E025
:1051B000EE0FFF1FE751FE4F6081621B0895E42F41
:1051C000F0E0EE0FFF1FE851FE4F6081621B089573
:1051D000622F0895E42FF0E0EE0FFF1FE851FE4F1D
:1051E000408134EE439F412D1124E82FF0E050E040
:1051F000445E5F4FDA01A21BB1099D01B7FF03C0F6
:1052000031952195310993E0220F331F9A95E1F7EB
:10521000AF01421B530B9A0157FF02C020E030E060
:10522000582F259F212D1124822F0895E42FF0E07F
:10523000EE0FFF1FE851FE4F408134EE439F412D9A
:105240001124E72FF0E050E0445E5F4FDA01A21B2B
:10525000B1099D01B7FF03C031952195310993E054
:10526000220F331F9A95E1F7AF01421B530B9A01AE
:1052700057FF02C020E030E0279F212D1124722F1C
:105280000895FC019B01009721F477FF2BC080E873
:105290000895AC0197FF04C044275527481B590BBC
:1052A000B901640F751F37FD0CC0241B350BC901F4
:1052B000A5E0880F991FAA95E1F70E94872F80E249
:1052C0000CC0CB0165E0880F991F6A95E1F7BA0120
:1052D000621B730B0E94872F80E6861BF7FF03C0BB
:1052E0008195089580E00895EF920F93CF93DF9317
:1052F000D72FC82FC9010E19BA010E944129602F6A
:10530000681B7D2F8C2FDF91CF910F91EF90089527
:105310000F93CF93DF93D72FC82FC901BA010E94F3
:105320004129682F600F7D2F8C2FDF91CF910F9136
:105330000895EF920F931F93CF93DF93D62FC72F2C
:10534000182FC9010E19010FBA010E944129081B2B
:10535000202F219F212D1124822F6D2F7C2FDF9153
:10536000CF911F910F91EF900895EF920F931F939C
:10537000CF93DF93D62F172FC82FC9010E19070F10
:10538000BA010E944129702F781B719F712D112441
:105390006D2F8C2FDF91CF911F910F91EF9008957A
:1053A000FF920F931F93CF93DF93F62ED72F182FD3
:1053B000C901C12FC01BBA010E944129982F990F22
:1053C000890FC81B2C2F219F212D1124822F6F2D77
:1053D0007D2FCDB7DEB7E5E00C944D2EFF920F93F5
:1053E0001F93CF93DF93F62E172FD82FC901C72F06
:1053F000C01BBA010E944129982F990F890F7C2F59
:10540000781B719F712D11246F2D8D2FCDB7DEB7B5
:10541000E5E00C944D2E482F982F46FD9095E92FEE
:10542000EF739F7046FD9F5FE295EF70EE0FF0E027
:10543000E457FE4F2181299F802D212D1124829533
:105440008F702295207F822B3081982F930F892F88
:1054500047FD81958058089540913701509138015A
:1054600025E038E0429FC001439F900D529F900D70
:105470001124875E994C9093380180933701890FEE
:105480000895BC018230910508F40895613E8EE1D3
:10549000780748F49B0195E0369527959A95E1F7B2
:1054A00048E0420F01C04FEF91E0242F30E0290F78
:1054B000311D35952795229FF001239FF00DF00DAA
:1054C00011246E177F0718F44FEF420F04C02F3FCF
:1054D00039F091E0920F491740F78FEF890F089547
:1054E0008FEF08950F93CF93DF93D72FC82F47FDEA
:1054F0004195E8E3F0E0CF01841B910947FD9395C6
:10550000889FB001899F700D700D1124229FC001EA
:10551000239F900D900D1124860F971F0E94412A02
:10552000682F660F860F682F600F7D2F8C2FDF91FD
:10553000CF910F91089520E030E0869F212D969F16
:10554000200D311D1124C9010895A0E0B0E0EBEA5F
:10555000FAE20C942E2EF62E472FE82FF0E0711170
:1055600006C0E052FA4F8491782F682F73C0272F1E
:1055700030E0E052FA4FE491FE2F0E2F10E056E09B
:10558000659FC0011124CFEFD0E0BE010E94102E14
:105590005BEA5603C001579F900D11248F0D911D9A
:1055A0008F0D911D982F990F980F7E01E21AF30A23
:1055B000E09ED001E19EB00DF09EB00D11248B2F26
:1055C000499FA0011124452F55277E01E41AF50AB1
:1055D000E09EA001E19E500DF09E500D11246E0141
:1055E000C91AD108C29E7001C39EF00CD29EF00C65
:1055F00011242F2D3327C21BD30BC09F9001C19FB5
:10560000300DD09F300D1124932F6230710591F031
:1056100048F461157105E1F061307105B9F49E2F10
:10562000E52F16C06430710569F040F066307105F1
:1056300079F00CC09E2FEB2F832F0AC0EB2F8F2FFA
:10564000952F06C09B2F8E2FE32F02C09B2F852FF7
:105650007E2F692FCDB7DEB7E8E00C944A2E9091EB
:10566000DC05937059F08093DD056093DE0540936F
:10567000DF058091DB0581608093DB0508959091C3
:10568000DC059370A1F0811102C0946007C08F31D6
:1056900010F0986703C0880F880F982B9093DC0553
:1056A00010923C018091DB0581608093DB050895B9
:1056B000EF92FF920F931F93CF93DF937C018B01A7
:1056C0000E944215811119C0E70101151105A1F0D1
:1056D0008091E80085FD0AC08091E8008E77809374
:1056E000E8000E944215882381F307C089918093C6
:1056F000F10001501109E9CF80E0CDB7DEB7E6E057
:105700000C944C2ECF932091DA05243029F5C091CA
:10571000E900CF703091EC00232F217030FD20E89C
:10572000C22B22E02093E9002091E80020FF11C065
:1057300040E050E060E270E00E94582B882321F0A6
:105740001092D8051092D9058091E8008E77809349
:10575000E800CF70C093E900CF910895A0E0B0E0D9
:10576000E4EBFBE20C942F2E8C0180913901C82FC1
:10577000CC0FCC0FC80FD5E0DC0FD13308F0D0E34D
:105780006091E0056695669521E0620F08F46FEF81
:105790008091D4059091D5050E949B2AD82ECD17D3
:1057A000F0F4EC2EF12CF701E85BFD4F9081809135
:1057B0003A01892391F06091DD057091DE058091B9
:1057C000DF052D2D4C2FF80109950E94A52A462FA3
:1057D000282F672FC7010E94030ACF5FE0CF81E027
:1057E000D03308F080E0CDB7DEB7E7E00C944B2E65
:1057F000A0E0B0E0EEEFFBE20C942B2E6C01809168
:105800003901C82FCC0FCC0FC80F15E01C0F113376
:1058100008F010E36091E005669566958091D405E7
:105820009091D5050E949B2AD82F80E48D0F0E946D
:105830000B2A90E8F92EF80E8D2F0E940B2A20E8F3
:10584000922E980EC11700F5AC2EB12CF501E85B35
:10585000FD4F908180913A018923A1F06091DD058F
:105860007091DE058091DF05ED2E0C2F292D4F2D37
:10587000F60109950E94A52A462F282F672FC501FA
:105880000E94030ACF5FDECF81E0103308F080E092
:10589000CDB7DEB7EBE00C94472E6F927F928F92DC
:1058A0009F92AF92BF92CF92DF92EF920F931F938E
:1058B000CF93DF933C0180913901C82FCC0FCC0FDF
:1058C000C80FD5E0DC0FD13308F0D0E36091E005DC
:1058D00066958091D4059091D5050E949B2A182F3A
:1058E000CD1708F044C08C2E912CF401E85BFD4FDD
:1058F000908180913A018923C1F1F401EE0FFF1FDD
:10590000E851FE4FC080D12C80E7C81AD108F401BD
:10591000EE0FFF1FE751FE4FA080B12CE0E2AE1A60
:10592000B108CC9C9001CD9C300D300D1124AA9C67
:10593000C001AB9C900D900D1124820F931F0E940B
:10594000412A082F6091DD057091DE058091DF0509
:10595000E12E9501A601F30109950E94A52A462F83
:10596000282F672FC4010E94030ACF5FB9CF81E0BF
:10597000D03308F080E0DF91CF911F910F91EF902D
:10598000DF90CF90BF90AF909F908F907F906F905F
:105990000895A0E0B0E0EFECFCE20C942E2E6C0138
:1059A00080913901C82FCC0FCC0FC80FD5E0DC0F88
:1059B000D13308F0D0E36091E00566958091D4057D
:1059C0009091D5050E949B2A182FCD1778F5EC2EC3
:1059D000F12CF701E85BFD4F908180913A0189231A
:1059E00019F1F701EE0FFF1FE751FE4F208130E064
:1059F00020523109F701EE0FFF1FE851FE4F4081A1
:105A000050E0405751096091DD057091DE058091AD
:105A1000DF05012FF60109950E94A52A462F282FA0
:105A2000672FC7010E94030ACF5FCFCF81E0D03339
:105A300008F080E0CDB7DEB7E8E00C944A2E109273
:105A4000B9008CE08093B8000895A0E0B0E0EBE2EC
:105A5000FDE20C942B2EB82EEB010E94B6156C01C2
:105A6000C431D10558F0CF3F8FEFD80759F0CE01A0
:105A700064E170E00E94102E7B0107C0EE24E394E5
:105A8000F12C03C025E0E22EF12C84E8A82E94EA44
:105A9000992E1092BC009092BC000E94B6158C0109
:105AA0008091BC0087FD07C0C8010E949B15E816C5
:105AB000F906B0F729C08091B900887F883041F09D
:105AC0008091B900887F803119F00FEF1FEF1EC061
:105AD000B092BB00A092BC000E94B6158C018091D0
